:020000040800F2
:100000006050002091F40008014A00089BF40008A9
:10001000034A0008074A00080B4A000800000000D5
:100020000000000000000000000000000F4A00086F
:10003000114A000800000000A7F40008EF4A000879
:10004000ABF40008ABF40008ABF40008ABF4000814
:10005000ABF40008ABF40008ABF40008ABF4000804
:10006000ABF40008ABF40008ABF40008ABF40008F4
:10007000ABF40008ABF40008ABF40008ABF40008E4
:10008000ABF40008ABF40008ABF40008ABF40008D4
:10009000ABF40008ABF40008ABF40008134A000806
:1000A000ABF40008ABF40008ABF40008ABF40008B4
:1000B000ABF40008254A00082D4A0008ABF40008FC
:1000C000ABF40008ABF40008ABF40008ABF4000894
:1000D000ABF40008494A0008514A0008594A000890
:1000E000ABF40008ABF40008ABF40008ABF4000874
:1000F000ABF40008ABF40008ABF40008ABF4000864
:10010000ABF40008ABF40008ABF40008ABF4000853
:10011000614A0008694A0008ABF400082F4A000849
:10012000ABF40008ABF40008ABF40008ABF4000833
:10013000ABF40008ABF40008ABF40008ABF4000823
:10014000ABF40008ABF40008ABF400084D01010863
:10015000ABF40008ABF40008ABF40008814A0008D7
:10016000ABF40008ABF40008ABF40008ABF40008F3
:10017000ABF40008ABF40008ABF40008ABF40008E3
:10018000ABF40008ABF40008714A0008794A000893
:10019000ABF40008ABF40008ABF40008ABF40008C3
:1001A000ABF40008ABF40008ABF40008DFF80CD0A7
:1001B00011F0C2FA00480047C50100086050002055
:1001C00000BFFEE702F00CFF00F03EF801E000F097
:1001D00061F8FCE770477047704710B59FED400A23
:1001E00006F09BFB10BD10B500F088F810BD10B5EF
:1001F00006F0AFFADFED3B1A9FED3A1A3A48D0ED20
:10020000000A3A4890ED000ADD21012002F057FE75
:1002100004F0CBFB10BD10B535480078401C3449C4
:100220000870087800EBD0714910A0EB410129B1AA
:100230004FF400412F4809F06DFE04E04FF40041F7
:100240002C4809F033FE10BD002000BF1FE000EB7A
:100250004001294A02EB810189884FF47A7292FBAE
:10026000F1F100EB4002244B03EB8202D18000EB62
:1002700040011A4602EB8101C988012905DA0121F2
:1002800000EB400203EB8202D180411CC8B2072878
:10029000DDD3704770B5002400BF1EE004F031FCD0
:1002A000054604EB4400144901EB80008068281ADD
:1002B00004EB4401104A02EB8101C98888420AD349
:1002C00004EB4400114601EB8000856004EB44011F
:1002D00052F821008047601CC4B2072CDED370BDE9
:1002E0000AD7233C000000004802002044020020FE
:1002F0005400002000100240000000207047000061
:1003000010B588B00446342C2CD004DC302C07D037
:10031000332C5DD114E0402C3AD0412C58D147E029
:100320001722894902A810F05FFF172002A90A23AB
:100330002246CDE90010DD21012001F02AFF48E02E
:1003400081481938016806918088ADF81C000620A4
:1003500006A90A232246CDE90010DD21012001F083
:1003600018FF36E078481938D0F812100691C18A83
:10037000ADF81C10007E8DF81E00072006A90A2388
:100380002246CDE90010DD21012001F002FF20E02E
:1003900014226E4903A810F027FF142003A90A2392
:1003A0002246CDE90010DD21012001F0F2FE10E02F
:1003B0000E22674904A810F017FF0E2004A90A2393
:1003C0002246CDE90010DD21012001F0E2FE00E02F
:1003D00000BF00BF08B010BD10B500242EE05D487E
:1003E00000EB84004088002817DD5B4830F82400CB
:1003F000401C594921F82400084630F8240055498A
:1004000001EB84014988884207DB0020524921F82A
:100410002400012001EB840188704F4800EB840028
:10042000807850B100204C4901EB84018870494923
:1004300011F82400FFF764FF10BD641C062CCEDB0E
:1004400000BFF9E710B52DED028BB0EE408AFFF743
:10045000C3FFBDEC028B10BD30B50346CA78052A38
:1004600053D007DC7AB1012A5AD0032A37D0042AA4
:1004700057D13FE0062A1AD0072A25D00F2A15D0D7
:10048000202A4ED100E04CE0C888344C20800889F6
:1004900060804889A0808889E080C8892081088A96
:1004A0006081488AA081888AE0813AE039E08879D1
:1004B0002B4C6070C879E070087A20714C7A28481B
:1004C00044718C7A84712CE0002005E08C1D245C42
:1004D000244D2C54441CE0B20628F7DB21E0002018
:1004E00005E08C1D245C204D2C54441CE0B20728F0
:1004F000F7DB16E0002005E08C1D245C1B4D2C541E
:10050000441CE0B20928F7DB0BE0002005E08C1D5D
:10051000245C174D2C54441CE0B20928F7DB00E0A2
:1005200000BF00BF30BD014600200AE0094A12F8B2
:1005300020208A4204D10122074B03EB80039A70EA
:10054000401C0628F2DB7047B1050020F027002090
:10055000D4050020F017010880050020E2050020E6
:10056000C80500206B00002064000020F205002078
:10057000FB05002010B52DED028BB0EE408A00F097
:100580001FF800BF2C4840782C490978884213D0C6
:1005900029484078294908700020294988744FF477
:1005A00087712748A0F813102348C1692448C0F870
:1005B00015103420FFF7B7FF00BFBDEC028B10BD54
:1005C00010B520480078FF2804D01E480078401C51
:1005D0001C490870184800781B490978884216D0D1
:1005E00015480078184908701348007A50B112482D
:1005F000C07838B110484089114908800E48808978
:10060000488004E04FF400400D49088048800A48C3
:1006100040780E49097888420DD0074840780B4948
:1006200008704FF40040064988803320FFF77BFFB5
:1006300000200449087010BD3C280020580000200C
:10064000980500205700002055000020560000208B
:1006500008B501207649887001F082F948B175A08B
:100660000068009003236A46DD21012001F07FF934
:1006700008BD0020FCE708B500206D49887001F036
:100680006FF948B16CA00068009003236A46DD2131
:10069000012001F06CF908BD0020FCE738B50446E4
:1006A00066480078A04216D001F05AF988B1604837
:1006B00004706248047062A0006800905C48007892
:1006C0008DF8030004236A46DD21012001F04FF973
:1006D00038BD0020FCE70120FAE708B501F040F939
:1006E00048B158A00068009003236A46DD2101202C
:1006F00001F03DF908BD0020FCE701B582B001F032
:100700002FF990B150A103C9CDE900019DF808006F
:100710008DF803009DF809008DF8040005236A4652
:10072000DD21012001F023F90EBD0020FCE708B512
:1007300001F016F948B146A00068009003236A460C
:10074000DD21012001F013F908BD0020FCE707B509
:1007500084B001F005F940B310208DF804000220A8
:100760008DF8050003208DF806009DF810008DF827
:1007700007009DF811008DF808009DF814008DF811
:1007800009009DF815008DF80A009DF818008DF8F5
:100790000B009DF819008DF80C00092301AADD213A
:1007A000012001F0E4F807B000BD0020FBE708B528
:1007B00001F0D6F848B127A00068009003236A46EC
:1007C000DD21012001F0D3F808BD0020FCE708B5C9
:1007D00001F0C6F848B120A00068009003236A46E3
:1007E000DD21012001F0C3F808BD0020FCE708B5B9
:1007F00001F0B6F848B119A00068009003236A46DA
:10080000DD21012001F0B3F808BD0020FCE708B5A8
:1008100001F0A6F848B112A00068009003236A46D0
:10082000DD21012001F0A3F808BD0020FCE7000055
:10083000C80500201000010010000200590000202F
:100840000101010010000700100005000000000079
:100850001000060001000300010004000100050073
:100860000100020010B504469848B0F96200B0F5E6
:10087000AF6F0BDD9548B0F96200B0F5C86F05DACF
:100880000120934948709349087002E00020904984
:1008900048708E48B0F96000B0F5966F06DA8C4863
:1008A000407818B901208A49087002E00020884980
:1008B00008708848007801284AD18748C078002805
:1008C00053D18248B0F95C0040F26C71884210DD6F
:1008D0007E48B0F95E0040F24C41884209DA7B481C
:1008E000B0F96000884204DA7848B0F962008842C2
:1008F00017DB7648B0F9620040F26C71884230DD57
:100900007248B0F95E0040F24C41884229DA6F48E3
:10091000B0F96000884224DA6C48B0F95C00884283
:100920001FDA6E480088B0F57A7F12DAD4ED000A3B
:100930006A48008800EE100AB8EE400A9FED681A77
:1009400000EE810ABCEEC00A10EE100A634908806E
:1009500062E0FFF77DFE0020604908805D49087075
:100960005AE000205D49088056E05B48C0780128C5
:1009700052D15648B0F95C0040F26C71884210DDEB
:100980005248B0F95E0040F24C41884209DA4F48C3
:10099000B0F96000884204DA4C48B0F9620088423D
:1009A00017DB4A48B0F9620040F26C71884230DDD2
:1009B0004648B0F95E0040F24C41884229DA43488B
:1009C000B0F96000884224DA4048B0F95C008842FF
:1009D0001FDA42480088B0F5967F12DAD4ED000A9B
:1009E0003E48008800EE100AB8EE400A9FED3C1A1F
:1009F00000EE810ABCEEC00A10EE100A37490880EA
:100A00000AE0FFF738FE00203449088031490870B9
:100A100002E000203149088010BD10B52E48C07892
:100A2000002844D12948B0F9620040F24C41884284
:100A300017DA2648B0F95E00884212DA2348B0F986
:100A4000600088420DDA2148B0F95C00884208DA7B
:100A50002448007838BBFFF7AAFE0120214908701E
:100A600025E01A48B0F9620040F26C7188421BDD43
:100A70001648B0F95E0040F24C41884214DA13483F
:100A8000B0F9600088420FDA1048B0F95C0040F21B
:100A90006C71884208DD1348007820B9FFF797FE93
:100AA00001201049087002E000200E49087010BDB6
:100AB00010B52DED020B054890F85B0020B9684693
:100AC000FFF7D0FEFFF7A9FF1CBD00009427002010
:100AD0005A0000205E000020C80500205C000020B5
:100AE00000007A445F00002010B52DED028B84B029
:100AF000B0EE408AFE48B0F9640040F2A46188423A
:100B000003DD0120FB49087002E00020F94908706C
:100B1000F74890F85B0000287DD1F548B0F96600F1
:100B2000B0F5966F06DA0120FFF7B8FD0120F24913
:100B3000087013E0EE48B0F9660040F2A461884204
:100B400006DA0220FFF7AAFD0220EB49087005E053
:100B50000320FFF7A3FD0320E7490870E64840782B
:100B6000E549097888420BD0E3480078E2494870AB
:100B700008460078032803D108468078401C887016
:100B80000024DD488078F8B1DC480088B0F5FA6FC1
:100B900010DADA48008800EE100AB8EE400ADFEDFD
:100BA000D80A00EE880ABCEEC00A10EE100AD3493B
:100BB000088009E0D0488078032800DB0124002069
:100BC000CE490880CC49887034B1FFF786FD08B95A
:100BD000012000E000200446C548B0F95C00A0F206
:100BE000DC5000EE900AF8EEE00AB0EE600A9FEDED
:100BF000C51ADFEDC50A02F063FE8DED000ABC48A0
:100C0000B0F95E00A0F2DC5000EE900AF8EEE00AC7
:100C1000B0EE600A00E081E09FEDBA1ADFEDBA0A9B
:100C200002F04EFE8DED010AB148B0F96000A0F26D
:100C3000DC5000EE900AF8EEE00AB0EE600A9FED9C
:100C4000B31ADFEDB10A02F03BFE8DED020AA848AF
:100C5000B0F96200A0F2DC5000EE900AF8EEE00A73
:100C6000B0EE600A9FEDA91ADFEDA70A02F028FE98
:100C70008DED030AA648007858B19FEDA30A8DEDCB
:100C8000000A9FEDA10A8DED010A9FED9F0A8DEDEF
:100C9000030A9DED000ADFED9F0A20EE200ADFED3A
:100CA0009E0A20EE200ABDEEC00A10EE100A00B225
:100CB0009A4908809DED010AB1EE400ADFED950AE0
:100CC00020EE200ADFED940A20EE200ABDEEC00AD5
:100CD00010EE100A00B248808548B0F86000A0F518
:100CE0007A7000B288809DED030AB1EE400ADFED14
:100CF0008C0A20EE200ADFED8B0A20EE200ABDEEE2
:100D0000C00A10EE100A00B2C8804120FFF70BFCA9
:100D1000002085490870854908701EE08448C07825
:100D200078B18148007828B90320FFF7B7FC7E49E5
:100D3000087006E07D48007818B9FFF7CEFC7B49C3
:100D4000087000207549088048804FF4AF70888093
:100D50000020C88088814881088104B0BDEC028BE6
:100D600010BD10B504467348008800EE100AB8EEB6
:100D7000400ADFED710A20EE200ABDEEC00A10EE37
:100D8000100A00B26D4908806A48408800EE100AD7
:100D9000B8EE400ADFED680A20EE200ABDEEC00A78
:100DA00010EE100A00B248806248808800EE100AF7
:100DB000B8EE400ADFED600A20EE200ABDEEC00A60
:100DC00010EE100A00B288805A48C08800EE100A5F
:100DD000B8EE400ADFED580A20EE200ABDEEC00A48
:100DE00010EE100A00B2C8805248008900EE100AC6
:100DF000B8EE400ADFED500A20EE200ABDEEC00A30
:100E000010EE100A00B208814A48408900EE100A2C
:100E1000B8EE400ADFED480A20EE200ABDEEC00A17
:100E200010EE100A00B248814248808900EE100A94
:100E3000B8EE400ADFED400A20EE200ABDEEC00AFF
:100E400010EE100A00B288813A48C08900EE100AFC
:100E5000B8EE400ADFED380A20EE200ABDEEC00AE7
:100E600010EE100A00B2C881E4B1002017E0334947
:100E700031F91010002901DC00210BE02F4931F974
:100E80001010B1F57A7F02DD4FF47A7102E02B4940
:100E900031F91010294A22F81010411CC8B2082854
:100EA000E5DB09E0002005E00021244A22F81010CB
:100EB000411CC8B20828F7DB204805F00AF810BD2D
:100EC00010B51F480088401C1D490880084600884E
:100ED0000A2190FBF1F201FB120019490880084633
:100EE000008820B99FED170A02F027FA2CE04AE0AB
:100EF00094270020B400002073000020760000201A
:100F000000007A4400002042000000000000A042DF
:100F10005A0000208F360E3B00C05A45D4050020F1
:100F2000C6F91B3B000048437100002072000020FE
:100F3000C8050020E2050020CDCCCC3D04060020F1
:100F4000780000200AD7233C1FED020AFFF7CCFDF2
:100F50001FED040AFFF7ACFD1FED060A02F0EAFEE2
:100F60001FED080A03F07AFA11484088401C104926
:100F70004880084640880A2190FBF1F201FB1200EC
:100F80000B49488000BF04F010FE05F0BFFA00F0E6
:100F900050F8012002F0CAFF9FED060AFFF7EAFAB7
:100FA0009FED040AFFF74EFA0120FFF7DAFE10BDAD
:100FB000780000206F12833A70B504460E4615463D
:100FC00004F0010018B1E9B2304603F0F7FE04F076
:100FD000020018B1E9B2304603F0F4FF04F0040057
:100FE00018B1E9B2304604F019F904F0080018B15C
:100FF000E9B2304604F00DFA04F0100018B1E9B27D
:10100000304604F029FB04F0200018B1E9B2304664
:1010100004F019FC04F0400018B1E9B2304604F0C5
:1010200030FD04F0800018B12946304605F055FA2D
:1010300070BD10B500F0B0F910BD70B504460D4696
:101040002946204600F0FCFA70BD7047704770B525
:101050000325002406E08D216143B84A881800F07A
:10106000D0FF641CAC42F6DB70BD70B588B005469D
:101070000E46B3480078401CB1490870B1A3022263
:10108000FE21012001F08EFA1C22B1A101A810F06E
:10109000ABF8002404E001A9085D02F012F8641C1A
:1010A000192CF8DB08B070BD7FB504460D46002052
:1010B0000390029001909FEDAD0A8DED000A002390
:1010C0002A46214603A800F0E4FB01232A462146D4
:1010D00002A800F0DEFB02232A46214601A800F008
:1010E000D8FB03232A462146684600F0D2FBA0A283
:1010F0009DF80C0000EE100AB8EE400AFE21012017
:1011000001F0D4FA9CA2BDF8080000EE100AB8EE77
:10111000400AFE21012001F0C9FA99A2BDF904009C
:1011200000EE100AB8EEC00AFE21012001F0BEFA5E
:1011300095A29DED000AFE21012001F0B7FA7FBDC6
:1011400070B50225002408E0C4EB041101EBC101D5
:101150008F4A881800F057FB641CAC42F4DB70BD6A
:1011600070B505460C466078DD2804D12146284636
:10117000FFF772F911E06078DE2804D12146284695
:1011800002F032FE09E06078D02806D1A08808304D
:1011900082B221460120FFF70FFF70BD70B50546F2
:1011A0000C46A078FF2856D16078FE2852D17948A5
:1011B000058005F0800030B9A088083082B2214651
:1011C0008020FFF7F9FE05F0010030B9A088083053
:1011D00082B221460120FFF7EFFE05F0020030B990
:1011E000A088083082B221460220FFF7E5FE05F014
:1011F000040030B9A088083082B221460420FFF7ED
:10120000DBFE05F0080030B9A088083082B2214624
:101210000820FFF7D1FE05F0100030B9A088083093
:1012200082B221461020FFF7C7FE05F0200030B93A
:10123000A088083082B221462020FFF7BDFE05F0CD
:101240004000002879D1A088083082B22146402091
:10125000FFF7B2FE71E0A07807285DD006DC062813
:101260006AD2DFE800F0693139414951DD280AD0FE
:1012700004DC082858D0D0285ED10CE0DE2812D03B
:10128000FE2859D117E0A088083082B221460120FB
:10129000FFF792FE50E0A088083082B2214602207B
:1012A000FFF78AFE48E0A088083082B22146082075
:1012B000FFF782FE40E0A088083082B22146354820
:1012C0000088FFF779FE37E0A088083082B2214617
:1012D0000120FFF771FE2FE0A088083082B221467E
:1012E0000220FFF769FE27E0A088083082B221467D
:1012F0000420FFF761FE1FE0A088083082B221467B
:101300000820FFF759FE17E0A088083082B2214676
:101310001020FFF751FE0FE0A088083082B221466E
:101320002020FFF749FE07E0A088083082B221465E
:101330004020FFF741FE00BF00BF70BD0A18010842
:101340007E0000207465737446756E204F4B21003B
:101350000F01FCDFFFFE070F78C0031EFFFBDFFF5E
:10136000FEF7BF190310800000000000000000001D
:101370005F706172310000005F70617232000000C6
:101380005F706172330000005F70617234000000B2
:10139000B11901087C0000202DE9F0414FF480755F
:1013A0004FF0FF34002676E04FF0FF34FF25002099
:1013B00040E000EBC00101EB4101E04A12F83110BE
:1013C000012936D100EBC00101EB410102EBC10163
:1013D000497801292DD100EBC00101EB410102EB5D
:1013E000C1010979A94208DA00EBC00101EB410112
:1013F00002EBC1010D7904461BE000EBC00101EBDB
:101400004101CE4A02EBC1010979A94211D100EB99
:10141000C00101EB410102EBC101C98804EBC40228
:1014200002EB4202C54B03EBC202D288914200DAC2
:101430000446401C1428BCDB002C2ADB04EBC4034C
:1014400003EB4303BD4F07EBC3039B8908339AB2F9
:1014500004EBC40303EB430307EBC30303F10801ED
:1014600004EBC40303EB430307EBC3035888FFF704
:10147000A3FD002004EBC40101EB41013A4602F850
:10148000310004EBC40101EB410102EBC1014870E2
:1014900000E002E0761C052E86DB00BF00F00EFBAC
:1014A000BDE8F08170B503464FF0FF31002021E028
:1014B00000EBC00404EB4404A04D15F83440C4B95B
:1014C000012400EBC00505EB45059C4E06F83540B0
:1014D0009B4C248800EBC00505EB450506EBC505D4
:1014E000EC80974C2488641C954D2C80014608465E
:1014F00070BD401C1428DBDB4FF0FF3200202FE0D2
:1015000000EBC00404EB44048C4D05EBC4042479C7
:10151000944208DD00EBC00404EB440405EBC40472
:10152000227901461BE000EBC00404EB4404834D28
:1015300005EBC4042479944211D100EBC00404EB00
:10154000440405EBC404E48801EBC10505EB450543
:101550007A4E06EBC505ED88AC4200DA0146401C28
:101560001428CDDB01EBC10000EB4000734C04EB11
:10157000C0000079984201DA4FF0FF31002903DB07
:10158000142901DA0846B3E74FF0FF30B0E710B591
:101590000146002200230878AB2801D0002010BDAE
:1015A000002006E00C5C1444E2B29C18E3B2441C38
:1015B000A0B28C88A41D8442F4DC91F8CE00904245
:1015C00005D191F8CF00984201D10120E7E7002032
:1015D000E5E770B505460C46A078DB2803D0A07877
:1015E000FF2800D070BDE078C12816D003DC38B1E8
:1015F000C0281DD110E0E02814D0E12818D112E055
:10160000A079C02803D12146284600F03EFAE8B26E
:101610002146FFF7A5FD10E000BF2146284600F057
:10162000A2F80AE000BF2146284600F088FC04E04A
:10163000E8B22146FFF794FD00BF00BF00BFD1E72D
:101640002DE9F04106460D4600274FF0010805E060
:101650004FF6FF7000EA4808781CC7B206EA080097
:1016600010B9B8F1000FF3DC082F01DBBDE8F08101
:1016700035207843334901EB8004207830B9AB2D15
:1016800059D1012020706080257154E02078012814
:1016900010D16188481C6080201D45546088062850
:1016A00049DB2089C82802DB0020207043E00220AB
:1016B000207040E0207802280CD16188481C6080AE
:1016C000201D455461882089801D814233DB032021
:1016D000207030E02078032809D16188481C6080A0
:1016E000201D455484F8D2500420207023E0207837
:1016F00004281ED16188481C6080201D455484F850
:10170000D35000202070201DFFF741FF98B1A07931
:10171000DB2802D0A079FF2803D1211D3046FFF736
:1017200058FFA079DB2806D0F0B2211DFFF736FD67
:1017300001E00020207000BF98E70000B40C0020FA
:10174000A000002014060020F0480068704700B593
:101750000146FFF7F9FF884201DA002000BDEC489E
:1017600050F82100FAE7F0B5A3B006460C46E07841
:10177000C02802D0C12843D131E000252AE0284604
:10178000FFF7E5FF07468722394601A80FF02CFD39
:10179000A0799DF8041088421AD1E0799DF80510CF
:1017A000884215D1207A9DF80610884210D194F80D
:1017B000CF00009094F8CE30E2786178304600F0A7
:1017C00067FDDDF8872029462046904723B0F0BD0D
:1017D000681C85B2FFF7B8FFA842D0DC10E0A07902
:1017E00020B96178304601F0F2F908E0A0790128CB
:1017F00005D1B4F807206178304601F06DFA00BFDA
:1018000000BF00BFE2E7C14909687F2908DCBF4982
:101810000A680968491CBD4B1960BD4941F822009E
:10182000704710B50246FFF78FFF904202DA4FF083
:10183000FF3010BD0021002026E0B54B53F82230C8
:10184000DB1C1B5C03B921E0B14B53F82230DB1CDD
:101850001B5C0B2B15D2DFE803F0140607090A0CFA
:101860000D10110E120000BF491C0BE000BF891CB7
:1018700008E000BF00BF091D04E000BF00BF083141
:1018800000E000BF00BF401C0828D6DB00BF0846B0
:10189000CFE72DE9F04781460F4615461E46FFF774
:1018A00053FFA84201DABDE8F087082E00DBFAE713
:1018B0004FF00008964850F82500C01C805D0B28AA
:1018C00019D2DFE800F01806070A0B0E0F131410E8
:1018D000150000BF4FF001080EE000BF4FF00208F6
:1018E0000AE000BF00BF4FF0040805E000BF00BFE2
:1018F0004FF0080800E000BF00BF0024002024E0F3
:10190000834951F82510C91C095C0B291AD2DFE85C
:1019100001F01906070A0B0E0F131410150000BF73
:10192000611C8CB20FE000BFA11C8CB20BE000BFA9
:1019300000BF211D8CB206E000BF00BF04F108010A
:101940008CB200E000BF00BF401CB042D8DBE01CFE
:10195000BA1D8118424648460FF046FC00BFA2E778
:101960006C48007808B9012070470020FCE72DE999
:10197000F04106460F4690461D466648007810B175
:101980000020BDE8F0810120FFF78CFD0446002C0B
:1019900079DB012004EBC40101EB41015E4A02F84E
:1019A0003100AB2004EBC40101EB410102EBC101AA
:1019B0000872DB2104EBC40000EB400002EBC00026
:1019C000417204EBC40000EB4000114601EBC00083
:1019D0008772C02104EBC40000EB400002EBC000A2
:1019E000C17204EBC40101EB410102EBC10101F141
:1019F0000E002A4641460FF0F7FB04EBC40000EB53
:101A00004000454901EBC000858104EBC40101EBB6
:101A10004101414A02EBC10101F1080000F09EFBC7
:101A200004EBC40000EB40003B4901EBC0004680E2
:101A3000012004EBC40101EB4101374A02EBC10173
:101A40004870C0203549087004EBC40000EB40002A
:101A5000114601EBC00090F8D6003049487004EB05
:101A6000C40000EB4000114601EBC00090F8D70025
:101A70002A498870012027490870002028490880D9
:101A800001207EE7FFE700207BE7CA78AAB98A79C0
:101A9000224B1B789A420DD1CA79204B5B789A422F
:101AA00008D10A7A1D4B9B789A4203D10222194B26
:101AB0001A7002E00322174B1A707047154800781D
:101AC00080B117480088B0F57A7F05DA144800889D
:101AD000401C1349088018E00020114908800D4976
:101AE000087012E00B480078022805D100200C494C
:101AF00008800849087008E006480078032804D1E7
:101B0000002007490880034908707047A40000209E
:101B1000941D0020A8000020B40C0020A900002083
:101B2000AC000020FE480068704770B52DED048BB6
:101B30000546EC88FFF7F6FFA04202DABDEC048B05
:101B400070BDF84850F8240000790B287AD2DFE8FD
:101B500000F0062E5881ABD3F8F7F6F5F400287A9A
:101B6000F04951F8241051F8053F49681B1A71F1EA
:101B7000000105DBEB4951F82410D1F8051010E005
:101B8000E84951F8241051F80D3F49681B1A71F1CA
:101B9000000105DAE34951F82410D1F80D1000E0F6
:101BA0000146E04A52F8242012681170C4E195F908
:101BB0000800DC4951F8241051F8053F4968C21764
:101BC0001B1A914105DBD74951F82410D1F80510B3
:101BD00010E0D44951F8241051F80D3F4968C2175C
:101BE0001B1A914105DACF4951F82410D1F80D1094
:101BF00000E0014649B2CB4A52F824201268117025
:101C00009AE12889C74951F8241051F8053F4968DD
:101C10001B1A71F1000105DBC24951F82410D1F8FB
:101C2000051011E0BF4951F8241051F80D3F4968E3
:101C30001B1A71F1000106DABA4951F82410D1F8E3
:101C40000D1001E077E10146B64A52F824201268EF
:101C5000118071E1B5F90800B24951F8241051F82A
:101C6000053F4968C2171B1A914105DBAD4951F880
:101C70002410D1F8051010E0AA4951F8241051F8A9
:101C80000D3F4968C2171B1A914105DAA54951F861
:101C90002410D1F80D1000E0014609B2A14A52F813
:101CA00024201268118047E1A8689E4951F8241049
:101CB00051F8053F49681B1A71F1000105DB99498C
:101CC00051F82410D1F8051010E0964951F824106D
:101CD00051F80D3F49681B1A71F1000105DA91496D
:101CE00051F82410D1F80D1000E001468D4A52F849
:101CF0002420126811601FE1A8688A4951F8241055
:101D000051F8053F4968C2171B1A914105DB854907
:101D100051F82410D1F8051015E0824951F824102B
:101D200051F80D3F4968C2171B1A91410ADA7D49E3
:101D300051F82410D1F80D1005E0DCE09DE008E03A
:101D400071E046E00146774A52F82420126811609B
:101D5000F2E095ED020AB0EE408A724850F8240095
:101D600050F8052F416810460FF088FB00EE100A6E
:101D7000B4EEC80AF1EE10FA09DB6A4850F82410F4
:101D800051F8052F496810460FF078FB1BE06548B5
:101D900050F8241051F80D2F496810460FF06EFBD3
:101DA00000EE100AB4EEC80AF1EE10FA09D25D484E
:101DB00050F8240050F80D2F416810460FF05EFBDC
:101DC00001E018EE100A574951F82410096808601C
:101DD000B2E0D5E90223534850F8240050F8051F1B
:101DE0004068891A984106D34E4850F8241051F89B
:101DF000050F496811E04B4850F8240050F80D1FBA
:101E00004068891A984106D2464850F8241051F883
:101E10000D0F496801E010461946424E56F82460FD
:101E2000366803C688E0D5E902233E4850F824000E
:101E300050F8051F4068891A984106DB394850F868
:101E4000241051F8050F496811E0364850F8240075
:101E500050F80D1F4068891A984106DA314850F849
:101E6000241051F80D0F496801E0104619462D4E17
:101E700056F82460366803C65EE095ED020BB0EEBE
:101E8000408AF0EE608A274850F8240050F8052F69
:101E9000416810460FF026FB53EC182B0FF062FB45
:101EA00009D8204850F8240050F8052F4168104602
:101EB0000FF018FB19E01B4850F8241051F80D2FB3
:101EC000496810460FF00EFB53EC182B0FF032FB55
:101ED00009D2144850F8241051F80D2F49681046C3
:101EE0000FF000FB01E051EC180B0E4A52F82420D1
:101EF000126803C220E02879801EC6B2632E00DD7E
:101F00006326084A52F82420D2F80D10054A52F8E8
:101F1000242010680FF081F9024951F8241003E0E1
:101F2000B0000020941F00200868324605F1080127
:101F30000FF05AF900E000BF00BF00BFFEE538B562
:101F400005460C46E078E02802D0E12844D131E093
:101F5000A07920B96178284600F01EFA25E0A07922
:101F6000012804D16178284600F052FC1DE0A079D8
:101F7000022806D1B4F807206178284600F0CDFC8D
:101F800013E0A079032806D1B4F807206178284629
:101F900000F050FD09E094F8CF00009094F8CE30A6
:101FA000E2786178284600F073F921462846FFF769
:101FB0004DF811E02046FFF7B8FD94F8CF000090EF
:101FC00094F8CE30E2786178284600F061F9214635
:101FD0002846FFF73AF800BF00BF38BD00B50246FB
:101FE000002108E05B4850F821000068904201D1D0
:101FF000012000BD491CFFF795FD8842F2DC00205E
:10200000F7E700B503461868FFF7E8FF68B95248DC
:102010000068B0F5007F08DA4F4801680068401C8E
:102020004D4A10604B4840F8213000BD00B50146D4
:10203000FFF778FD884201DA002000BD454850F8DE
:102040002100FAE770B504460D46FFF76BFDA0428C
:1020500001DA002070BD3F4850F8240000790B28B9
:1020600075D2DFE800F0060E161E262E3E483652C8
:102070005C00384850F8240000680078287001207F
:10208000E8E7344850F82400006800782870012000
:10209000E0E7304850F824000068008828800220DB
:1020A000D8E72C4850F824000068008828800220D7
:1020B000D0E7284850F82400006800682860042011
:1020C000C8E7244850F8240000680068286004200D
:1020D000C0E7204850F82400006800682860042009
:1020E000B8E71C4850F8240000680168296040687F
:1020F00068600820AEE7174850F8240000680168BF
:102100002960406868600820A4E7124850F824005D
:102110000068016829604068686008209AE7002626
:1021200001E0701CC6B2642E06DA0A4850F824009A
:102130000068805D0028F4D1064850F8240001684A
:10214000324628460FF050F8304683E7FFE700207C
:1021500080E70000941F0020B000002010B500218F
:102160000022002306E0C45C0C44E1B25418E2B241
:102170005C1CA3B28488A41D9C42F4DC83889B1D54
:10218000C1548388DB1DC25480F8CE1080F8CF2064
:1021900010BD2DE9F05F06460F4690461D46DDE96D
:1021A0000AAB4FF000092846FFF77CF90446002CE3
:1021B0006CDB012004EBC40101EB4101F64A02F89B
:1021C000310004EBC40000EB4000114601EBC000FD
:1021D0000571AB2004EBC40101EB410102EBC1012D
:1021E0000872DB2104EBC40000EB400002EBC000EE
:1021F000417204EBC40000EB4000114601EBC0004B
:10220000877204EBC40000EB400001EBC00080F8D3
:102210000B80002011E01AF8003004EBC40101EB40
:102220004101DD4A02EBC1010E314A4609F1010CC0
:102230000CF0FF098B54411C88B25845EBDB04EBD2
:10224000C40000EB4000D44901EBC000A0F80C90A2
:1022500004EBC40101EB4101CF4A02EBC10101F1E2
:102260000800FFF77BFF04EBC40000EB4000CA4905
:1022700001EBC0004680012004EBC40101EB4101E9
:10228000C54A02EBC1014870BDE8F09F0020FBE7A2
:102290002DE9F04706460F4690469946DDF820A006
:1022A00000250120FFF7FEF80446002C72DB012018
:1022B00004EBC40101EB4101B74A02F83100AB2045
:1022C00004EBC40101EB410102EBC1010872DB2107
:1022D00004EBC40000EB400002EBC000417204EBD1
:1022E000C40000EB4000114601EBC00087720021E2
:1022F00004EBC40000EB400002EBC000C17204EB31
:10230000C40000EB4000114601EBC0000E3029462E
:102310006A1CD5B200F8018004EBC40000EB400059
:102320009D4901EBC0000E3029466A1CD5B200F869
:10233000019004EBC40000EB4000974901EBC000A2
:102340000E3029466A1CD5B200F801A004EBC40087
:1023500000EB4000904901EBC000858104EBC40113
:1023600001EB41018C4A02EBC10101F10800FFF7CA
:10237000F5FE04EBC40000EB4000874901EBC00010
:102380004680012004EBC40101EB4101824A02EBCB
:10239000C1014870BDE8F0872DE9F843074688463B
:1023A00000250120FFF77EF80446002C7EDB01208B
:1023B00004EBC40101EB4101774A02F83100AB2084
:1023C00004EBC40101EB410102EBC1010872DB2106
:1023D00004EBC40000EB400002EBC000417204EBD0
:1023E000C40000EB4000114601EBC00080F80A80F9
:1023F000E32104EBC40000EB400002EBC000C1721B
:10240000DB2304EBC40000EB4000114601EBC000ED
:102410000E3029466A1CD5B24354642000909DF8C2
:10242000003004EBC40000EB40005B4901EBC0004E
:102430000E3029466A1CD5B243549DF8013004EB96
:10244000C40000EB4000544901EBC0000E302946A7
:102450006A1CD5B24354642000909DF8003004EB10
:10246000C40000EB40004C4901EBC0000E3029468F
:102470006A1CD5B243549DF8013004EBC40000EB54
:102480004000454901EBC0000E3029466A1CD5B218
:102490004354002000909DF8003004EBC40000EB92
:1024A00040003D4901EBC0000E3000E072E02946DB
:1024B0006A1CD5B243549DF8013004EBC40000EB14
:1024C0004000354901EBC0000E3029466A1CD5B2E8
:1024D00043544FF4487000909DF8003004EBC40062
:1024E00000EB40002C4901EBC0000E3029466A1C6D
:1024F000D5B243549DF8013004EBC40000EB40001A
:10250000254901EBC0000E3029466A1CD5B2435460
:1025100000260FF2880913E03046711CCEB219F87C
:10252000003004EBC40000EB40001B4901EBC0008D
:102530000E3029466A1CD5B24354B42E00DD03E0A8
:1025400019F806000028E7D100BF04EBC40000EB37
:102550004000114901EBC000858104EBC40101EB8F
:1025600041010D4A02EBC10101F10800FFF7F6FD40
:1025700004EBC40000EB4000074901EBC0004780BA
:10258000012004EBC40101EB4101034A02EBC1014C
:10259000487000BFBDE8F883B40C0020416E6F4D59
:1025A000435500002DE9F0478046894692461D4676
:1025B00000261420FEF776FF0446002C74DB012071
:1025C00004EBC40101EB4101FE4A02F83100AB20EB
:1025D00004EBC40101EB410102EBC1010872DB21F4
:1025E00004EBC40000EB400002EBC000417204EBBE
:1025F000C40000EB4000114601EBC00080F80A90D7
:10260000A02104EBC40000EB400002EBC000C1724B
:1026100004EBC40000EB4000114601EBC0000E309B
:102620003146721CD6B200F801A0002712E03846ED
:10263000791CCFB22B5C04EBC40000EB4000E149F5
:1026400001EBC0000E303146721CD6B24354B42F99
:1026500000DD02E0E85D0028E9D100BF04EBC40022
:1026600000EB4000D74901EBC000868104EBC401B8
:1026700001EB4101D34A02EBC10101F10800FFF770
:102680006DFD04EBC40000EB4000CE4901EBC0003F
:10269000A0F80280012004EBC40101EB4101C94A0A
:1026A00002EBC101487000BFBDE8F0872DE9F74398
:1026B0002DED020B80468946164600251420FEF7B4
:1026C000F1FE0446002C75DB012004EBC40101EB94
:1026D0004101BC4A02F83100AB2004EBC40101EB1C
:1026E000410102EBC1010872DB2104EBC40000EBE5
:1026F000400002EBC000417204EBC40000EB40005C
:10270000114601EBC00080F80A90A12104EBC4003F
:1027100000EB400002EBC000C1729DF8003004EBFA
:10272000C40000EB4000114601EBC0000E3029460A
:102730006A1CD5B243549DF8013004EBC40000EB91
:102740004000A04901EBC0000E3029466A1CD5B2FA
:1027500043549DF8023004EBC40000EB400099495B
:1027600001EBC0000E3029466A1CD5B243549DF8D7
:10277000033004EBC40000EB4000924901EBC000C1
:102780000E3029466A1CD5B24354002713E0384660
:10279000791CCFB2335C04EBC40000EB40008949E4
:1027A00001EBC0000E3029466A1CD5B24354B42F49
:1027B00001DD03E029E0F05D0028E8D100BF04EB73
:1027C000C40000EB40007F4901EBC000858104EBB1
:1027D000C40101EB41017B4A02EBC10101F1080098
:1027E000FFF7BCFC04EBC40000EB4000754901EBB3
:1027F000C000A0F80280012004EBC40101EB4101FC
:10280000704A02EBC101487000BF05B0BDE8F0831B
:10281000F8B506460F4600250120FEF743FE0446A4
:10282000002C79DB012004EBC40101EB4101654A76
:1028300002F83100AB2004EBC40101EB410102EBD3
:10284000C1010872DB2104EBC40000EB400002EB85
:10285000C000417204EBC40000EB4000114601EBE4
:10286000C0008772E02104EBC40000EB400002EBE3
:10287000C000C172012304EBC40000EB400011460C
:1028800001EBC0000E3029466A1CD5B24354FFF755
:1028900049F980B200909DF8003004EBC40000EBD1
:1028A0004000484901EBC0000E3029466A1CD5B2F1
:1028B00043549DF8013004EBC40000EB4000414953
:1028C00001EBC0000E3029466A1CD5B2435404EB1C
:1028D000C40000EB40003B4901EBC000858104EBE4
:1028E000C40101EB4101374A02EBC10101F10800CB
:1028F000FFF734FC04EBC40000EB4000314901EB6E
:10290000C0004680012004EBC40101EB41012D4AC7
:1029100002EBC101487000BFF8BDF7B506460F468F
:102920000025FFF7FFF8BDF80810884200DCFEBD67
:102930000120FEF7B7FD0446002C79DB012004EBF3
:10294000C40101EB41011F4A02F83100AB2004EB46
:10295000C40101EB410102EBC1010872DB2104EB70
:10296000C40000EB400002EBC000417204EBC40065
:1029700000EB4000114601EBC0008772E12104EB3F
:10298000C40000EB400002EBC000C1729DF80830AB
:1029900004EBC40000EB4000114601EBC0000E3018
:1029A00029466A1CD5B243549DF8093004EBC40093
:1029B00000EB4000034901EBC0000E3029466A1CC1
:1029C000D5B201E0B40C0020435404EBC40000EB8A
:1029D0004000F74A02EBC0000E304119BDF8080074
:1029E000FFF730FB2844C5B204EBC40000EB400005
:1029F000EF4901EBC000858104EBC40101EB41010B
:102A0000EB4A02EBC10101F10800FFF7A7FB04EB61
:102A1000C40000EB4000E64901EBC0004680012005
:102A200004EBC40101EB4101E14A02EBC101487032
:102A300000BF7CE72DE9F743804689460025FFF774
:102A400071F8BDF80810884201DCBDE8FE83012062
:102A5000FEF728FD0446002C75DB012004EBC401C1
:102A600001EB4101D24A02F83100AB2004EBC40172
:102A700001EB410102EBC1010872DB2104EBC40050
:102A800000EB400002EBC000417204EBC40000EB1D
:102A90004000114601EBC00080F80A90E22104EBEF
:102AA000C40000EB400002EBC000C1729DF808308A
:102AB00004EBC40000EB4000114601EBC0000E30F7
:102AC00029466A1CD5B243549DF8093004EBC40072
:102AD00000EB4000B64901EBC0000E3029466A1CED
:102AE000D5B24354BDF80800FFF7A0FA00B9ACE72F
:102AF000BDF80800FFF79AFA0646337904EBC400E4
:102B000000EB4000AA4901EBC0000E3029466A1CC8
:102B1000D5B24354002012E006F1150111F800C0AF
:102B200004EBC40101EB4101A14A02EBC1010E31EA
:102B30002A466B1CDDB201F802C0411CC8B2142841
:102B4000EADB002715E040E03846791CCFB206F1F9
:102B500029010B5C04EBC40000EB4000944901EB3D
:102B6000C0000E3029466A1CD5B24354AA2F00DD9E
:102B700004E006F12900C05D0028E5D100BF04EBA8
:102B8000C40000EB40008A4901EBC000858104EBE2
:102B9000C40101EB4101864A02EBC10101F10800C9
:102BA000FFF7DCFA04EBC40000EB4000804901EBC6
:102BB000C000A0F80280012004EBC40101EB410138
:102BC0007B4A02EBC101487000BF00BF3DE7F8B58A
:102BD00006460F4600250120FEF764FC0446002C43
:102BE00079DB012004EBC40101EB4101704A02F8DA
:102BF0003100AB2004EBC40101EB410102EBC10148
:102C00000872DB2104EBC40000EB400002EBC000C3
:102C1000417204EBC40000EB4000114601EBC00020
:102C20008772C12104EBC40000EB400002EBC0003E
:102C3000C172002304EBC40000EB4000114601EB1D
:102C4000C0000E3029466A1CD5B24354FEF77CFD05
:102C500080B200909DF8003004EBC40000EB40000F
:102C6000534901EBC0000E3029466A1CD5B24354CB
:102C70009DF8013004EBC40000EB40004C4901EB2F
:102C8000C0000E3029466A1CD5B2435404EBC40080
:102C900000EB4000464901EBC000858104EBC40114
:102CA00001EB4101424A02EBC10101F10800FFF7CB
:102CB00055FA04EBC40000EB40003D4901EBC000B5
:102CC0004680012004EBC40101EB4101384A02EBCC
:102CD000C101487000BFF8BD2DE9F743A2B0074617
:102CE00088460025FEF730FDBDF89010884202DCD2
:102CF00025B0BDE8F0830120FEF7D4FB0446002C8C
:102D00007EDB012004EBC40101EB4101284A02F8FB
:102D10003100AB2004EBC40101EB410102EBC10126
:102D20000872DB2104EBC40000EB400002EBC000A2
:102D3000417204EBC40000EB4000114601EBC000FF
:102D400080F80A80C22104EBC40000EB400002EBD3
:102D5000C000C1729DF8903004EBC40000EB40004D
:102D6000114601EBC0000E3029466A1CD5B243540F
:102D70009DF8913004EBC40000EB40000C4901EBDE
:102D8000C0000E3029466A1CD5B24354BDF89000ED
:102D9000FEF7DDFC00B9ABE7BDF89000FEF7D7FC0D
:102DA00081468722494668460EF01EFA002011E04F
:102DB000B40C00201DF800C004EBC40101EB41017C
:102DC000804A02EBC1010E312A466B1CDDB201F8CC
:102DD00002C0401C0328EDDB002013E00DF10301CD
:102DE00011F800C004EBC40101EB4101754A02EB8C
:102DF000C1010E312A466B1CDDB201F802C000E0B1
:102E00005BE0401C0828E9DB002012E00DF10B011B
:102E100011F800C004EBC40101EB4101694A02EB67
:102E2000C1010E312A466B1CDDB201F802C0411C03
:102E3000C8B21428EADB002614E03046711CCEB27A
:102E40000DF11F010B5C04EBC40000EB40005D4979
:102E500001EBC0000E3029466A1CD5B24354B42E93
:102E600000DD04E00DF11F00805D0028E5D100BF0A
:102E700004EBC40000EB4000524901EBC000858127
:102E800004EBC40101EB41014E4A02EBC10101F127
:102E90000800FFF763F904EBC40000EB4000494968
:102EA00001EBC0004780012004EBC40101EB4101AC
:102EB000444A02EBC101487000BF00BF18E770B57B
:102EC0002DED048B8CB005460E46B0EE408AF0EE38
:102ED000608AB0EE419AF0EE619A00249FED3A0AC2
:102EE00028EE000ABCEEC00A10EE100A80B2039071
:102EF0009DF80C202146641C04A842549DF80D2026
:102F00002146641C42549FED300A28EE800ABCEE34
:102F1000C00A10EE100A80B203909DF80C202146E2
:102F2000641C04A842549DF80D202146641C4254A0
:102F30009FED250A29EE000ABCEEC00A10EE100A29
:102F400080B203909DF80C202146641C04A84254D2
:102F50009DF80D202146641C42549FED1B0A29EE6A
:102F6000800ABCEEC00A10EE100A80B203909DF8F1
:102F70000C202146641C04A842549DF80D202046D4
:102F8000611CCCB204A90A54002003909DF80C20C7
:102F90002046611CCCB204A90A549DF80D2020469D
:102FA000611CCCB204A90A5404A80A230D2231469C
:102FB000CDE900042846FFF7ECF80CB0BDEC048B1B
:102FC00070BD0000B40C00200000C84210B502F033
:102FD000E1FF0120F94981F85A0081F85B0010BD3A
:102FE00010B501F0C8FD642001F0B9FD01F0CBFD82
:102FF000002001F0E7FD03F055FA01F0FBFD02F0BF
:10300000F5FD642001F0ABFDFEF721F8FEF798F81E
:10301000EB4801F058FEEB4801F05CFFE94802F094
:1030200083F8E84802F0AAFAE74802F0A3FBE54873
:1030300002F09DFC642001F092FDFFF7C7FF6420C1
:1030400001F08DFD01F048F801F02EFE03F0D0FAFA
:1030500003F0C9FB32226421022003F089FC01F055
:103060006AFC012010BD40F6C411884203DDD74937
:103070000978032903DCD54909780A290DD10021F3
:10308000D24A1170CD49B1F87010491CCB4AA2F850
:103090007010012182F8721012E0B0F5967F0FDDFA
:1030A00040F6B83188420BDA02B2C449891CC74BDA
:1030B0001B7821F81320C5490978491CC34A1170AF
:1030C000704738B50446C2A000680090C148406807
:1030D000C049086001F018FDBE49486008464068D4
:1030E0000968401A40F6C411884202D90020BA4942
:1030F0000870B9480078192802DB0020B64908702A
:10310000B54801780078401CB34A1070B348445465
:103110001046007819287DD1182011460870AF4854
:1031200000780F2877D1AD48007E38B1AB48017EDA
:10313000AB4A12781DF802008142F3D10020A64963
:1031400008701922A549A7480EF04EF8A548B0F816
:103150000100C0F30A0099498882A2484088C0F360
:10316000CA019648C1829F48D0F80200C0F38A3154
:10317000924801839B48B0F80500C0F34A018F488C
:1031800041839848C088C0F30A118C4881839548D0
:10319000D0F80600C0F3CA318848C1839148B0F81E
:1031A0000900C0F38A01854801848E48408941099D
:1031B000824841848B488089C0F30A017F4881841A
:1031C0008848B0F80D00C0F3CA017C48C184854826
:1031D000D0F80D00C0F38A31784801858148008A13
:1031E000C0F34A01754841857E48B0F81100C0F32C
:1031F0000A11724881857B48D0F81100C0F3CA31AA
:103200006E48C1857748808AC0F38A016B48018681
:10321000744801E032E027E0B0F815004109674842
:1032200041867048C07D654981F83400084690F8B1
:10323000340000F0080040B90846B0F87000401CA7
:10324000A1F87000022081F8720065480078401CE7
:10325000634908700878C11700EB91718910A0EBE1
:1032600081015F4A117009E0002005E05B4A411CC2
:10327000515C1154411CC8B21828F7DB38BD10B599
:103280000446D4ED000A5848008800EE100AB8EE53
:10329000400A9FED561A00EE810ABCEEC00A10EEFD
:1032A000100A5149088008460088B0F57A7F43DD4E
:1032B000002008804148B0F870004049A1F858004B
:1032C0000846B0F85800052803DA012081F85A00B2
:1032D00003E00020394981F85A00384890F85A0034
:1032E00008B33648007818BB41480078401C404974
:1032F000087008460078032190FBF1F201FB1200F0
:103300003B49087008460078012802D102F0C3FE4C
:103310000EE037480078022802D102F03BFE07E0B9
:1033200002F020FF04E0254890F87200234908705D
:1033300000202249A1F8700010BD10B52DED020B40
:103340006846FFF79CFF1D4890F85A0000287DD181
:103350001A48007801280DD1002008E01749891C7F
:1033600031F810205A3121F81020411CC8B20A2827
:10337000F4DB65E01148007802283FD100201AE014
:103380000E49143131F91010A1F5806100EE101AC8
:10339000F8EEC00A9FED170A9FED171A01EE200AFA
:1033A000BDEEC00A10EE101A0AB204495C3121F8D1
:1033B0001020411CC8B20A28E2DB41E0942700201B
:1033C00040420F0020A10700A0680600B5000020C1
:1033D00004142434B8000020C0000020212800205C
:1033E000C100002008280020C400002000007A440A
:1033F000C20000200080BB442FDD243F2B48007812
:1034000003281DD1002019E02849363131F9101068
:10341000AC3900EE101AF8EEC00A1FED0C0A9FED51
:10342000241A01EE200ABDEEC00A10EE101A0AB2EC
:103430001E495C3121F81020411CC8B20A28E3DB88
:103440001A48B0F96600B0F5966F00E01AE005DDA5
:103450001648B0F96600B0F5AF6F0BDB1348B0F952
:103460006600B0F5C86F09DD1048B0F96600B0F528
:10347000E16F03DA01200F49087011E000200D49C7
:1034800008700DE001200B490870002006E00022C2
:1034900006495C3121F81020411CC8B20A28F6DB2D
:1034A00004480078014981F85B001CBD9427002086
:1034B0007B311C3FC6000020F0EE400AF5EEC00A4A
:1034C000F1EE10FA02DBB0EE600A7047B1EE600A6E
:1034D000FBE700B5B0EE403AB0EE602AB5EEC03A78
:1034E000F1EE10FA07D1B5EEC02AF1EE10FA02D1D2
:1034F0009FEDFC1A99E0B0EE430AFFF7DDFFF0EE16
:10350000403AB0EE420AFFF7D7FFF0EE402AF4EE61
:10351000E23AF1EE10FA02D283EEA24A01E082EE24
:10352000A34A9FEDF10AB4EEC04AF1EE10FA02D2BE
:10353000F0EE441A2DE0DFEDED0AB6EE000A14EECF
:10354000200AF0EE404ABDEEE40A10EE100A00EE4A
:10355000100AB8EEC00A34EEC00AF0EE404AE44960
:1035600001EB800191ED000AF0EE401AE04A411CA7
:1035700002EB810191ED000A114601EB8001D1EDD2
:10358000000A70EE600AB0EE610A00EEA40AF0EEE6
:10359000401AF4EEE32AF1EE10FA20DDB5EEC02A6F
:1035A000F1EE10FA0ADBB5EEC03AF1EE10FA02DBEA
:1035B000B0EE611A39E0B1EE611A36E09FEDCD1A36
:1035C000B5EEC03AF1EE10FA04DB31EE610AB0EE6E
:1035D000401A2AE031EEC10AB0EE401A25E0B5EEFD
:1035E000C03AF1EE10FA10DB9FEDC31AB5EEC02A17
:1035F000F1EE10FA04DB31EE610AB0EE401A14E08D
:1036000031EE210AB0EE401A0FE09FEDBC1AB5EE84
:10361000C02AF1EE10FA04DB31EE210AB0EE401AB6
:1036200003E031EE610AB0EE401AB0EE410A00BD8F
:1036300000B5B0EE405AF0EE605AF0EE450AB0EE3A
:10364000650AFFF746FF00BDF0EE400AF6EE001AED
:1036500060EEA11AB0EE611AB0EE600A10EE100A28
:10366000A749A1EB600000EE100A21EE002AF7EE58
:10367000081A42EE401A61EE801AB0EE610A21EE9D
:10368000002AF7EE081A42EE401A61EE801AB0EEF8
:10369000610A704700B5F0EE402AB0EE620AFFF70B
:1036A000D3FF20EE220A00BD10B52DED0A8BB0EE3F
:1036B000409AF0EE609A9FED930B53EC102B51EC77
:1036C000190B0DF037FF18D29FED900B53EC102B18
:1036D00051EC190B0DF060FE41EC1B0B9FED8D0BB7
:1036E00053EC102B0DF0B1FD41EC1A0B53EC192BE0
:1036F0000DF052FE41EC180B17E09FED840B53ECDC
:10370000102B51EC190B0DF047FE41EC1B0B9FEDFC
:10371000810B53EC102B0DF03CFE41EC1A0B53ECDB
:10372000192B0DF039FE41EC180B9FED760B53EC85
:10373000102B51EC180B0DF0FDFE20D29FED770BF6
:1037400053EC102B51EC180B0DF07FFD41EC1C0BD2
:103750009FED740B53EC102B0DF01EFE41EC1B0B78
:103760009FED6E0B53EC102B0DF06FFD41EC1A0B1F
:1037700053EC182B0DF010FE41EC180B1FE09FEDE1
:10378000670B53EC102B51EC180B0DF0FFFD41ECC7
:103790001C0B9FED660B53EC102B0DF0FDFD41EC67
:1037A0001B0B9FED5E0B53EC102B0DF04EFD41EC0F
:1037B0001A0B53EC182B0DF0EFFD41EC180BB0EE8B
:1037C000480AF0EE680ABDEC0A8B10BD10B52DED6D
:1037D000068BB0EE408AF0EE608A01249FED550B17
:1037E00053EC102B51EC180B0DF0BCFE0AD89FEDDA
:1037F000510B53EC102B51EC180B0DF0C7FD41ECA5
:10380000180BA41E20460DF04FFE41EC190BB0EE34
:10381000480AF0EE680AFFF747FFB0EE40AAF0EE64
:1038200060AA53EC192B51EC1A0B0DF0B5FD41ECCD
:10383000100BBDEC068B10BD10B52DED088BB0EE56
:10384000408AF0EE608A01249FED3C0B53EC102B74
:1038500051EC180B0DF0F9FC41EC180B9FED350BFA
:1038600053EC102B51EC180B0DF07CFE0AD8A41E63
:103870009FED300B53EC102B51EC180B0DF086FD27
:1038800041EC180B20460DF00FFE41EC1A0BB0EE88
:10389000480AF0EE680AFFF799FFB0EE40BAF0EE82
:1038A00060BA53EC1A2B51EC1B0B0DF075FD41EC7B
:1038B000190B0DF06FFE00EE100ABDEC088B10BD69
:1038C000F0EE401AF4EEE01AF1EE10FA3ADD31EEC5
:1038D000C10AB4EEE00AF1EE10FA3CD2B0EE600A92
:1038E00039E00000000000008180803B0000804340
:1038F000C01A0108DB0F4940DB0FC93FDB0FC9BF0E
:10390000DF59375F00000000000000000000006089
:103910002FF0D93F00000060305FF43F000000004E
:103920000000F03F000000C0CCCCCCBF000000C0C5
:10393000CCCCCC3FF1D4C853FB210940F1D4C853BF
:10394000FB21F93F31EE810AB4EEE00AF1EE10FA04
:1039500001DDB0EE600A7047F0EE401AB1EE412A88
:1039600032EE202AB4EEE12AF1EE10FA09D231EE5D
:10397000202AB4EEE12AF1EE10FA02DDB0EE600A80
:1039800001E0B0EE610A7047F0EE402AB5EEC01AD1
:10399000F1EE10FA02DDB0EE410A01E0B1EE410AAB
:1039A000B6EE003A22EE033A23EE213AB4EEC30A11
:1039B000F1EE10FA06D29FEDD40A20EE800AF0EE66
:1039C000400A4DE0B5EEC01AF1EE10FA02DDB0EE9D
:1039D000410A01E0B1EE410A22EE213AB4EEC30AF7
:1039E000F1EE10FA06D29FEDC90A20EE800AF0EE41
:1039F000400A35E0B5EEC01AF1EE10FA02DDB0EE85
:103A0000410A01E0B1EE410AB4EEE10AF1EE10FA2A
:103A100006D2B6EE000A20EE800AF0EE400A1FE061
:103A2000B5EEC01AF1EE10FA02DDB0EE410A01E087
:103A3000B1EE410AB0EE003A21EE833AB4EEC30A89
:103A4000F1EE10FA06D29FEDB20A20EE800AF0EEF7
:103A5000400A05E09FEDAF0A20EE800AF0EE400A32
:103A60009FEDAD0A20EE800A20EE223AF7EE003AF2
:103A700083EE830AB7EE003A30EE030AF7EE003A1F
:103A800083EE803A90ED000A71EE403A90ED000A24
:103A900003EE230A80ED000A90ED000AB1EE423AEF
:103AA00023EE213AB4EEC30AF1EE10FA04D8B1EED7
:103AB000420A20EE210A0DE090ED000A22EE213AA2
:103AC000B4EEC30AF1EE10FA02DD22EE210A01E0A3
:103AD00090ED000A80ED000A90ED000A31EE400AF8
:103AE000704710B52DED028BB0EE408AF0EE608A83
:103AF0009FED8A0B53EC102B51EC180B0DF032FD9F
:103B00000CD29FED880B53EC102B51EC180B0DF0E1
:103B10003DFC41EC100BBDEC028B10BD9FED830B07
:103B200053EC102B51EC180B0DF004FD0AD29FED55
:103B30007D0B53EC102B51EC180B0DF086FB41EC78
:103B4000100BE8E7B0EE480AF0EE680AE3E730B59C
:103B500005460C46F0EE403AD5ED000A60EEA00AAC
:103B600094ED001AD4ED001A41EE210AB0EE600A7D
:103B7000FFF790FDB0EE403AB5EEC03AF1EE10FA24
:103B800002D81FEDA80A09E0B4EEE33AF1EE10FA0C
:103B900002DDB0EE630A01E0B0EE430AB0EE404A47
:103BA000B5EEC03AF1EE10FA06D11FEDB20A83ED80
:103BB000000A82ED000A0FE084EE030AD5ED000A48
:103BC00020EE200A82ED000A84EE030AD4ED000AFA
:103BD00020EE200A83ED000A30BDF0EE400A0B789B
:103BE00002EB8303C3ED000A0B785B1C0B700B78B0
:103BF000834201DB00230B700B7802EB830393ED10
:103C0000000A704700B50246B0EE403A0B46F7EEA8
:103C1000000A43EE430AB0EE600AFFF73BFDD2ED27
:103C2000000A20EE200AD2ED010A00EEC30A83ED5D
:103C3000000AF7EE000A43EE430AB0EE600AFFF70F
:103C400029FDD2ED010A20EE200AD2ED000A00EE95
:103C5000830A83ED010A00BD90ED000AD1ED010A4F
:103C600020EE200AD0ED010A91ED001A00EEC10A03
:103C7000704790ED000AD1ED000A20EE200AD0ED49
:103C8000010A91ED011A00EE810A704790ED010AD8
:103C9000D1ED020A20EE200AD0ED020A91ED011AC0
:103CA00000EEC10A82ED000A90ED020AD1ED000A91
:103CB00020EE200AD0ED000A91ED021A00EEC10AB2
:103CC00082ED010A90ED000AD1ED010A20EE200AF2
:103CD000D0ED010A91ED001A00EEC10A82ED020A50
:103CE000704790ED000AD1ED000A20EE200AD0EDD9
:103CF000010A91ED011A00EE810AD0ED020A91ED60
:103D0000021A00EE810A70479A99993FCDCC4C3F38
:103D1000CDCC4C3ECDCCCC3DC3F5C840000000001E
:103D20000080664000000000008076400000000037
:103D3000008066C008B57848D0ED000A9FED771A7C
:103D4000F4EEC10AF1EE10FA0BD2D0ED000AB7EE94
:103D5000001A70EE810AC0ED000A012070498870D7
:103D600002E000206E4988706B48D0ED010A9FED9B
:103D70006B1AF4EEC10AF1EE10FA0BD2D0ED010A83
:103D8000B7EE001A70EE810AC0ED010A01208DF82D
:103D9000000002E000208DF800005F48D0ED020A2C
:103DA0009FED5E1AF4EEC10AF1EE10FA0BD2D0EDDF
:103DB000020AB7EE001A70EE810AC0ED020A012075
:103DC0008DF8010002E000208DF801009DF8000050
:103DD00030B19DF8010018B101205149C87002E0CE
:103DE00000204F49C87008BD10B50246C8780128A8
:103DF0004CD0042858D034283AD0512837D18B7968
:103E00005BB9CB79464C63710B7A5BB2A3714B7A89
:103E10005BB2E3718B7A237129E08B79012B12D18C
:103E2000CB793F4C23720B8963814B89A3810B7B38
:103E300023719FED3C0A384B83ED010A23461B7822
:103E40005B1C237013E08B79022B10D1CB79344C9F
:103E5000A3730B8923824B8963828B89A382CB89CD
:103E6000E3820B8A23834B8A63830B7D237150E0AB
:103E7000D1F809302A4CE3619FED2A0A264B83EDE5
:103E8000020A23465B785B1C637042E0CB88244CBB
:103E900023860B8963864B89A3868B89E386CB892E
:103EA00023870B8A638734E0B1F9063000EE103ABD
:103EB000B8EEC00ADFED1C0A20EE200A184B83ED95
:103EC000080AB1F9083000EE103AB8EEC00ADFED8A
:103ED000160A20EE200A124B83ED090AB1F90A30C6
:103EE00000EE103AB8EEC00ADFED0F0A20EE200A0D
:103EF0000B4B83ED0A0AB1F90C3000EE103AB8EE24
:103F0000C00ADFED090A20EE200A054B83ED0B0AFB
:103F100000BF00BF10BD0000782800200000FA4359
:103F20003C2800200000000017B7D13870B50546C6
:103F3000FC480078002870D00020FA490870FA4840
:103F4000FA49086008460068007DF9494876F74854
:103F50000068C17DF6488176F44800688169F448BC
:103F6000C0F81B10F1480068C169F148C0F81F1083
:103F7000EE480068406A0A2190FBF1F1EC48C0F875
:103F80002310EA480068006B0A2190FBF1F001B2AF
:103F9000E748A0F82710E5480068406B0A2190FB2D
:103FA000F1F001B2E248A0F82910E0480068806B07
:103FB0000A2190FBF1F001B2DD48A0F82B10DB489C
:103FC0000068B0F84C0000EE100AB8EE400ADFEDD1
:103FD000D90A20EE200ABCEEC00A10EE104A0CB935
:103FE000002004E0C82C01D9C82000E02046044687
:103FF000CF4880F82D40CD480068406C00EE100A94
:10400000B8EE400ADFEDCB0A20EE200ABCEEC00A73
:1040100010EE104A14B9002005E027E0C82C01D9A1
:10402000C82000E020460446C14880F82E40BF4822
:104030000068C06A00EE100AB8EE400ADFEDBD0A63
:1040400020EE200ABCEEC00A10EE104A0CB9002087
:1040500004E0C82C01D9C82000E020460446B4483A
:1040600080F82F403020FCF75EFA00BFB24800789D
:1040700028B30021B04B1970AB49891F0979AA4BAD
:104080009B1F5B7901EB032188B2A0F108010C238F
:1040900091FBF3F1CAB2A0F1080191FBF3F403FB29
:1040A000141159B9082809DB9F49891FCB7A0021CF
:1040B00001E000BF491C9142FBDB00BF00BF70BDA7
:1040C00010B50E219D4801F0A4F910BD10B50E21C8
:1040D0009B4801F09EF910BD10B54FF4E13001F09E
:1040E00031F90A2000F03BFD1621964801F091F9C4
:1040F000C82000F034FD4FF4165001F023F90A20D7
:1041000000F02DFD1C21904801F083F9C82000F03B
:1041100026FD4FF4964001F015F90A2000F01FFD2E
:104120001C21894801F075F9C82000F018FD4FF4F2
:10413000164001F007F90A2000F011FD1C21824809
:1041400001F067F9C82000F00AFD4FF4E13001F0FA
:10415000F9F80A2000F003FD1C217B4801F059F911
:10416000C82000F0FCFC4FF4612001F0EBF84FF4A4
:10417000487000F0F4FC0B21744801F04AF9142057
:1041800000F0EDFC0B21724801F043F9142000F01F
:10419000E6FC0B216F4801F03CF9142000F0DFFC35
:1041A0000B216D4801F035F9142000F0D8FC0B21EB
:1041B0006A4801F02EF9142000F0D1FC0B21684868
:1041C00001F027F9142000F0CAFC0B21654801F02A
:1041D00020F9142000F0C3FC1021634801F019F904
:1041E000142000F0BCFCFFF76BFF10BD30B5044697
:1041F0005E48008850B9B52908D14B48801F5B4AFA
:10420000128881540120594A108018E157480088CB
:1042100001280AD1622908D14348801F534A1288D5
:1042200081540220514A108009E150480088022838
:104230000FD13D48801F4D4A1288815403204B4ABC
:1042400010804B48017000780128DED000201080DB
:10425000F5E046480088032817D13348801F434AB9
:10426000128881540420414A10804248017000782D
:104270000728CAD03F4800783528C6D03D48007886
:104280003028C2D000201080D9E0384800880428A7
:104290000AD12548801F354A128881540520334AA7
:1042A000108035480170CAE03048008805286BD17D
:1042B0001D48801F2D4A1288815406202B4A1080E9
:1042C0002D48007800EB01202C4A10802948007806
:1042D00007280ED110460088642802DD0020234AFA
:1042E00010801048007800288FD000201F4A1080CE
:1042F000A5E020480078352803D01E4800783028F3
:104300003ED11E480088B0F5FA7F02DD0020174A32
:10431000108009480078002802D00020134A10803D
:104320008DE031E0CC0000208A280020C800002069
:10433000980500200AD7233CCD000020CE000020A5
:10434000DC000020A00100202201002053010020F9
:104350005E01002069010020740100207F0100201F
:104360008A01002095010020B6010020CE01002026
:10437000C6010020C7010020C8010020CA0100209A
:1043800000202F4A10805AE02D480088062853DB71
:104390002C482B4A1288815429480088401C284AFE
:1043A000108010460288284800880830824246DB88
:1043B00000200023022206E0224DAD5C0544E8B255
:1043C0001D18EBB2521C204D2D88AD1DAA42F3DB07
:1043D0001C4D1D4A1288921DAA5C824228D11A4A9D
:1043E0001288D21DAA5C9A4222D1184A1278012A58
:1043F00007D1174A1278072A03D10122154D2A70D6
:1044000016E0124A1278012A07D1114A1278352A89
:1044100003D10122104D2A700AE00C4A1278012AB9
:1044200006D10B4A1278302A02D101220A4D2A7095
:104430000022034D2A8002E00020014A108030BD96
:10444000CE01002084280020CA010020C6010020DF
:10445000C7010020CC000020CD00002008B5C748CF
:10446000D0ED000A9FEDC61AF4EEC10AF1EE10FA83
:104470000BD2D0ED000AB7EE001A70EE810AC0ED43
:10448000000A0120BF49887002E00020BD49887001
:10449000BA48D0ED010A9FEDBA1AF4EEC10AF1EE66
:1044A00010FA0BD2D0ED010AB7EE001A70EE810AB5
:1044B000C0ED010A01208DF8000002E000208DF817
:1044C0000000AE48D0ED020A9FEDAD1AF4EEC10A2D
:1044D000F1EE10FA0BD2D0ED020AB7EE001A70EE30
:1044E000810AC0ED020A01208DF8010002E00020DF
:1044F0008DF801009DF8000030B19DF8010018B161
:104500000120A049C87002E000209E49C87008BD83
:1045100030B500220024C5788B1F9D4200D030BDED
:10452000002306E0C55C1544EAB2A518ECB25D1C98
:10453000EBB28D1E9D42F5DC431813F8023C93420A
:1045400004D1431813F8013CA34200D0E7E7837875
:10455000512B38D103795BB943798A4D6B718379DB
:104560005BB2AB71C3795BB2EB71037A2B7183E001
:104570000379012B12D14379824D2B72C3886B8151
:104580000389AB81837A2B719FED7F0A7B4B83ED8F
:10459000010A2B461B785B1C2B706DE00379022B04
:1045A0006AD14379774DAB73C3882B8203896B82C1
:1045B0004389AB828389EB82C3892B83038A6B8314
:1045C000837C2B7158E08378342B0DD1D0F80730E1
:1045D0006C4DEB619FED6C0A684B83ED020A2B4634
:1045E0005B785B1C6B7047E08378012B0DD183886F
:1045F000644D2B86C3886B860389AB864389EB8623
:1046000083892B87C3896B8736E08378042B33D16A
:10461000B0F9043000EE103AB8EEC00ADFED5B0AE4
:1046200020EE200A574B83ED080AB0F9063000EE61
:10463000103AB8EEC00ADFED550A20EE200A514BC1
:1046400083ED090AB0F9083000EE103AB8EEC00A5E
:10465000DFED4E0A20EE200A4A4B83ED0A0AB0F93C
:104660000A3000EE103AB8EEC00ADFED480A20EE3C
:10467000200A444B83ED0B0A00BF50E770B5054696
:104680000C464348007838B9AA2C05D1012040498E
:104690000870404804706FE03D480078012809D157
:1046A000DB2C01D0FF2C05D1022039490870394894
:1046B000447061E036480078022805D1032034496F
:1046C00008703448847057E03148007803280CD1D2
:1046D0002D2C0ADA04202E4908702E48C4702E486A
:1046E000047000202D49087046E02948007804280D
:1046F00019D129480078002815DD27480078401E88
:10470000254908702548007824490978491C234A1E
:104710001170001D1F490C541F48007840BB052034
:104720001B49087028E01A48007805280DD106209A
:10473000174908701948007818490978491C174A20
:104740001170001D13490C5416E01148007806281A
:104750000FD100200E49087010480078001D0D4947
:104760000C540E480078401DC1B20A48FFF7D0FE35
:1047700002E000200649087070BD0000782A002081
:104780000000FA433C2800200000000017B7D13891
:10479000D2010020842A0020D0010020D101002075
:1047A00038B50446002000906B4602222146452081
:1047B00002F051FB9DF801009DF8001000EB012074
:1047C00085B2284638BD38B505460C46200A8DF816
:1047D0000000E0B28DF801006B4602222946452018
:1047E00002F00CFB38BD10B54FF400410020FFF77C
:1047F000EAFF142000F0B3F910BD10B52DED068BC3
:1048000082B00020019001AB03220421452002F078
:1048100022FB9DF8040000049DF8051040EA0120E9
:104820009DF8061040EA0104C4F3130444F30F108A
:1048300008EE100AB8EEC80A10EE100A0CF066FE78
:1048400041EC1A0B9FED5F0B53EC102B0CF0A4FD09
:1048500041EC190B0CF09EFE00EE100A02B0BDEC0C
:10486000068B10BD10B52DED048B0520FFF798FFCA
:10487000044620460CF029FE41EC190B9FED530B2A
:1048800053EC102B0CF088FD41EC180B0CF082FE61
:1048900000EE100ABDEC048B10BD10B52DED028B9F
:1048A00082B00020019001AB03220721452002F0D5
:1048B000D2FA9DF8040000049DF8051040EA01209A
:1048C0009DF8061040EA0104C4F3130444F30F10EA
:1048D00008EE100AB8EEC80ADFED3E0A60EE200AC4
:1048E0009FED3D1A80EE810A02B0BDEC028B10BD37
:1048F00010B52DED068B0820FFF752FF0446204629
:104900000CF0E3FD41EC1A0B9FED340B53EC102B34
:104910000CF042FD41EC190B9FED320B53EC102BC8
:104920000CF03AFD41EC180B0CF034FE00EE100ACE
:10493000BDEC068B10BD70B52DED028B02F0EBF8CF
:104940003F20FFF72DFF0446B4F50A5F03DB42F278
:104950008F20844202DDBDEC028B70BDFFF743FF68
:104960000120FFF71DFF06464FF66B310120FFF7D0
:104970002AFF0120FFF714FF06469FED1C8ADFED9A
:104980001C8A9FED1C0A28EE000A20EE280ABCEEC5
:10499000C00A10EE100A85B229460220FFF713FF65
:1049A00001201549087000BFD5E710B512480078FE
:1049B00000B910BDFFF771FF104880ED000A00BF7D
:1049C000F7E70000F168E388B5F8943E9A99999961
:1049D0009999293FCDCC4C4300000049FCA9F1D264
:1049E0004D62503F9A99999999990940CDCCCC390B
:1049F00017B7513900504350D4010020D80100208E
:104A0000704700BFFEE700BFFEE700BFFEE770474C
:104A1000704710B5802004F005FF10B1802004F02D
:104A200054FF10BD10B501F00DFB10BD704710B55F
:104A30000121154808F06BFF28B10121124808F048
:104A4000C3FFFCF73DFA10BD10B500F005FA10BD2C
:104A500010B500F006FB10BD10B500F030FC10BD25
:104A600010B500F027FD10BD10B500F045FE10BDDB
:104A700010B500F039FF10BD10B501F053F810BDAE
:104A800010B501F05BFB10BD001400407FB5684617
:104A900005F0D2FE4FF47A710198B0FBF1F4E4080E
:104AA0002146481EB0F1807F00D31BE0481E4FF026
:104AB000E022506150170F22002807DA13071E0E5C
:104AC000484B00F00F052D1F5E5503E013071D0E28
:104AD000454B1D5400BF00204FF0E022906107209D
:104AE000106100BF6FF0040002F0CCFB7FBD3F48B7
:104AF000D0E900305A1C40F100003C49C1E90020D7
:104B000070473A480068704710B500BF374A1168CF
:104B10004FF0E02252694FF0E0239B69D21A4FF424
:104B20007A735A434FF0E0235B69B2FBF3F201EB77
:104B30004103C3EBC11302EBC3002C4C18CC4B4018
:104B40002343E3D110BD30B50446FFF7DDFF054632
:104B500000BFFFF7D9FF401BA042FAD330BD10B50C
:104B6000044603E04FF47A70FFF7EDFF201EA4F136
:104B70000104F7D110BD10B54FF4806002F0D0FAF7
:104B8000FFF784FF10BD1CB5684605F011F8012140
:104B9000082006F03AF801208DF804008DF807008F
:104BA00000208DF8060002208DF80500800200909C
:104BB00069460F4804F04CFF4FF400610C4805F0C3
:104BC000A9F91CBD10B504462CB14FF4006108488A
:104BD00005F06CF904E04FF40061054805F09AF91E
:104BE00010BD000018ED00E000E400E0E00100204E
:104BF000000C02401CB5684604F0DAFF01211020C9
:104C000006F003F801208DF804008DF8070000205D
:104C10008DF8060002208DF805008003009069469B
:104C2000044804F015FF4FF40041024805F072F902
:104C30001CBD0000001002403EB5044601212020AA
:104C400006F058F81E4806F0BBFA01945320ADF860
:104C500000000020ADF80800ADF8020069461848D1
:104C600006F08AFB0121164808F01BFE01221146BE
:104C7000134808F00DFD0121114806F0EEFE002159
:104C8000202006F037F83EBD08B537208DF800002B
:104C900007208DF8010001208DF802008DF8030037
:104CA000684602F058FA08BD10B54FF47A70FFF765
:104CB000C3FFFFF7E9FF0121202006F01BF810BD1C
:104CC00000140040704710B58AB00446012110203E
:104CD00006F037F80121084605F097FF25208DF8EA
:104CE000240003208DF8250000208DF826000120E7
:104CF0008DF8270009A802F02EFA07220921FA48A8
:104D000005F0FDF907220A21F74805F0F8F94FF4FC
:104D10000070079002208DF820008DF821000020FF
:104D20008DF8220001208DF8230007A9EE4804F039
:104D30008FFE4FF48060079002208DF820008DF8E0
:104D4000210001208DF8220000208DF8230007A902
:104D5000E54804F07DFE03A809F0A8FCE34809F04B
:104D600025FB03940020ADF81000ADF81200ADF85B
:104D70001400ADF818000C20ADF816000020ADF8B6
:104D80000400ADF806004FF40070ADF808000020F4
:104D9000ADF80A0003A9D54809F092FB01A9D34850
:104DA00009F090FC012240F22551D0480AF007F9A1
:104DB0000121CE4809F0DFFC0AB010BD70B50546F0
:104DC0000E46002411E02A5DC9490888411CC84BE1
:104DD0001980C8490A5418460088B0F5006F02DBF4
:104DE000002019460880601CC4B2B442EBDBBF4807
:104DF000808900F0800028B9012240F22771BB4869
:104E00000AF0DDF870BDBC4A11884A1CBA4B1A8002
:104E1000BA4A505419460988FF2902DD00211A4672
:104E20001180704710B510E0B5480488601CB44A82
:104E30001080B248015D0120FCF7FFF8B0480088FF
:104E4000FF2802DD0020AE490880AB480088AC494D
:104E500009888842E8D110BD10B5A448008800F048
:104E6000080010B1A1488088C4B240F225519F4883
:104E70000AF0F7F950B140F225519C480AF088FA3F
:104E80009A488088C4B22046FFF7BDFF40F22771E0
:104E900096480AF0E6F9E0B19A490888411C994A17
:104EA00011809449095C914A918096480088B0F538
:104EB000006F02DB002093490880924800888C49EB
:104EC0000988884205D18948808920F08000874977
:104ED000888110BD10B58AB004460121480405F050
:104EE00009FF0121082005F090FE26208DF82400FE
:104EF00004208DF8250001208DF826008DF827006C
:104F000009A802F028F9072205217F4805F0F7F8E3
:104F1000072206217C4805F0F2F8202007900220A5
:104F20008DF820008DF8210000208DF8220001204E
:104F30008DF8230007A9744804F08AFD40200790EB
:104F400002208DF820008DF8210001208DF822002C
:104F500002208DF8230007A96B4804F079FD03A80F
:104F600009F0A4FB694809F021FA03940020ADF888
:104F70001000ADF81200ADF81400ADF818000C20C8
:104F8000ADF816000020ADF80400ADF806004FF4AF
:104F90000070ADF808000020ADF80A0003A95B48D6
:104FA00009F08EFA01A9594809F08CFB012240F260
:104FB000255156480AF003F80121544809F0DBFB5B
:104FC0000AB010BD70B505460E46002411E02A5DFA
:104FD0004F490888411C4E4B19804E490A541846C7
:104FE0000088B0F5006F02DB002019460880601CC5
:104FF000C4B2B442EBDB45480C30008800F08000BE
:1050000028B9012240F22771404809F0D8FF70BD4D
:10501000414A11884A1C404B1A80404A5054194654
:105020000988FF2902DD00211A461180704710B55A
:1050300010E03B480488601C394A10803748015D05
:105040000220FBF7FAFF36480088FF2802DD002027
:105050003349088030480088314909888842E8D1BE
:1050600010BD10B52948008800F0080018B1274885
:10507000001D0088C4B240F2255124480AF0F1F81E
:1050800058B140F2255121480AF082F91F48001D0D
:105090000088C4B22046FFF7BBFF40F227711B48CF
:1050A0000AF0DFF8F8B11F490888411C1D4A118039
:1050B0001849095C154A121D11801A480088B0F57C
:1050C000006F02DB0020174908801648008810494D
:1050D0000988884207D10D480C30008820F08000F4
:1050E0000A490C31088010BD000002400010014048
:1050F000E8010020B62A0020EC010020B632002092
:10510000EE010020EA010020000C024000440040B3
:10511000F0010020B6330020F4010020B63B00204F
:10512000F6010020F201002010B58AB004460121EA
:10513000880405F0DFFD0121082005F066FD272029
:105140008DF8240004208DF8250001208DF826001C
:105150008DF8270009A801F0FEFF07220821F74873
:1051600004F0CDFF07220921F44804F0C8FF4FF4F2
:105170008070079002208DF820008DF8210000201B
:105180008DF8220001208DF8230007A9EB4804F0D8
:105190005FFC4FF40070079002208DF820008DF81E
:1051A000210001208DF8220000208DF8230007A99E
:1051B000E24804F04DFC03A809F078FAE04809F051
:1051C000F5F803940020ADF81000ADF81200ADF82A
:1051D0001400ADF818000C20ADF816000020ADF852
:1051E0000400ADF806004FF40070ADF80800002090
:1051F000ADF80A0003A9D24809F062F901A9D04824
:1052000009F060FA012240F22551CD4809F0D7FE9D
:105210000121CB4809F0AFFA0AB010BD70B50546C0
:105220000E46002411E0295DC64802880088401C13
:10523000C44B1880C448815418460088FF2802DDFA
:10524000002019460880601CC4B2B442EBDBBC48A5
:105250000C30008800F0800028B9012240F227714C
:10526000B74809F0ACFE70BDB8490A880988491CE6
:10527000B64B1980B649885419460988FF2902DDC2
:1052800000211A461180704710B511E0B14802881C
:105290000088401CAF4B1880AD48815C0420FBF7B0
:1052A000CCFEAC480088FF2802DD0020A949088018
:1052B000A6480088A74909888842E7D110BD10B5E3
:1052C0009F48008800F0080018B19D48001D008824
:1052D000C4B240F225519A4809F0C3FF58B140F2D8
:1052E000255197480AF054F89548001D0088C4B22B
:1052F0002046FFF7B9FF40F22771914809F0B1FF4E
:10530000F8B1954801880088401C934A10808E4867
:10531000405C8B49091D088010460088FF2802DD8B
:105320000020114608808C480088864909888842F8
:1053300007D183480C30008820F0800080490C3170
:10534000088010BD10B588B004460121C80405F0DE
:10535000D1FC0121084605F058FC34208DF81C00D2
:1053600003208DF81D0001208DF81E008DF81F0010
:1053700007A801F0F0FE08220021784804F0BFFEE3
:1053800008220121754804F0BAFE01200590022090
:105390008DF818008DF8190000208DF81A000120F2
:1053A0008DF81B0005A96D4804F052FB0220059002
:1053B0008DF818008DF8190001208DF81A000020D2
:1053C0008DF81B0005A9654804F042FB01A809F00F
:1053D0006DF9634808F0EAFF01940020ADF8080079
:1053E000ADF80A00ADF80C00ADF810000C20ADF8D7
:1053F0000E0001A95A4809F063F8012240F2255134
:10540000574809F0DCFD0121554809F0B4F908B00E
:1054100010BD70B505460E46002411E0295D5148C7
:1054200002880088401C4F4B18804F488154184612
:105430000088FF2802DD002019460880601CC4B2E5
:10544000B442EBDB46480C30008800F0800028B9FD
:10545000012240F22771424809F0B1FD70BD434975
:105460000A880988491C414B1980414988541946CA
:105470000988FF2902DD00211A461180704710B506
:1054800011E03C4802880088401C3A4B188038489C
:10549000815C0820FEF7AAFE36480088FF2802DD5E
:1054A0000020344908803148008832490988884200
:1054B000E7D110BD10B52A48008800F0080018B1E7
:1054C0002748001D0088C4B240F22551244809F045
:1054D000C8FE58B140F22551214809F059FF204833
:1054E000001D0088C4B22046FFF7B9FF40F22771C3
:1054F0001B4809F0B6FEF8B11F4801880088401C1F
:105500001D4A10801848405C1549091D0880104646
:105510000088FF2802DD0020114608801648008818
:1055200010490988884207D10D480C30008820F0C6
:1055300080000B490C31088010BD0000000C0240B7
:1055400000480040F8010020B63C0020FC0100208B
:10555000B63D0020FE010020FA01002000000240BC
:10556000004C004000020020B63E00200402002053
:10557000B63F0020060200200202002010B588B0CD
:1055800004460121080505F0B5FB0121042005F0C2
:105590003CFB0121082005F038FB35208DF81C006C
:1055A00001208DF81D0000208DF81E0001208DF8CF
:1055B0001F0007A801F0CFFD08220C21FE4804F0CF
:1055C0009EFD08220221FD4804F099FD4FF4805011
:1055D000059002208DF818008DF8190000208DF834
:1055E0001A0001208DF81B0005A9F34804F030FAD9
:1055F0000420059002208DF818008DF81900012074
:105600008DF81A0000208DF81B0005A9EB4804F066
:105610001FFA01A809F04AF8E94808F0C7FE01940A
:105620000020ADF80800ADF80A00ADF80C00ADF8A8
:1056300010000C20ADF80E0001A9E14808F040FF71
:10564000012240F22551DE4809F0B9FC0121DC4875
:1056500009F091F808B010BD70B505460E4600245B
:1056600011E0295DD74802880088401CD54B18807E
:10567000D548815418460088FF2802DD00201946CD
:105680000880601CC4B2B442EBDBCD48808900F0D6
:10569000800028B9012240F22771C94809F08FFC27
:1056A00070BDCA490A880988491CC84B1980C84975
:1056B000885419460988FF2902DD00211A46118005
:1056C000704710B511E0C34802880088401CC14BE8
:1056D0001880BF48815C1020FEF7D0FFBD480088CD
:1056E000FF2802DD0020BB490880B8480088B9497E
:1056F00009888842E7D110BD10B5B148008800F094
:10570000080010B1AE488088C4B240F22551AC48C0
:1057100009F0A7FD50B140F22551A94809F038FE23
:10572000A7488088C4B22046FFF7BBFF40F227712C
:10573000A34809F096FDE0B1A74801880088401C05
:10574000A54A1080A048405C9D498880104600888A
:10575000FF2802DD0020114608809F4800889949F3
:105760000988884205D19648808920F080009449B4
:10577000888110BD10B588B004460121880705F066
:10578000B9FA0121102005F040FA52208DF81C00D2
:1057900004208DF81D0001208DF81E008DF81F00DB
:1057A00007A801F0D8FC082211468C4804F0A7FC99
:1057B00008220721894804F0A2FC4FF4807005906C
:1057C00002208DF818008DF8190000208DF81A00BD
:1057D00001208DF81B0005A9804804F039F98020CC
:1057E000059002208DF818008DF8190001208DF821
:1057F0001A0000208DF81B0005A9784804F028F94C
:1058000001A808F053FF764808F0D0FD019400206D
:10581000ADF80800ADF80A00ADF80C00ADF81000C6
:105820000C20ADF80E0001A96D4808F049FE0122D8
:1058300040F225516A4809F0C2FB0121684808F08E
:105840009AFF08B010BD70B505460E46002411E061
:10585000295D644802880088401C624B18806248B9
:10586000815418460088FF2802DD00201946088070
:10587000601CC4B2B442EBDB59480C30008800F025
:10588000800028B9012240F22771554809F097FBA2
:1058900070BD56490A880988491C544B19805449DF
:1058A000885419460988FF2902DD00211A46118013
:1058B000704710B511E04F4802880088401C4D4BDE
:1058C00018804B48815C202000F06AFC4948008821
:1058D000FF2802DD002047490880444800884549E8
:1058E00009888842E7D110BD10B53D48008800F016
:1058F000080018B13A48001D0088C4B240F2255192
:10590000374809F0AEFC58B140F22551344809F04F
:105910003FFD3348001D0088C4B22046FFF7B9FFA1
:1059200040F227712E4809F09CFCF8B132480188FA
:105930000088401C304A10802B48405C2849091DD3
:10594000088010460088FF2802DD002011460880EC
:105950002948008823490988884207D120480C300B
:10596000008820F080001E490C31088010BD10B561
:1059700088B004460121C80705F0BCF901211020B8
:1059800005F043F953208DF81C0004208DF81D000C
:1059900001208DF81E008DF81F0007A801F0DBFB29
:1059A000082201210D4804F0AAFB082200210B481F
:1059B00004F0A5FB022021E000080240000C024098
:1059C0000050004008020020B64000200C020020D9
:1059D000B64100200E0200200A0200200010024002
:1059E0000078004010020020B6420020140200207F
:1059F000B6430020160200201202002005908DF808
:105A000018008DF8190000208DF81A0001208DF87B
:105A10001B0005A96D4804F01BF801200590022029
:105A20008DF818008DF8190001208DF81A0000205B
:105A30008DF81B0005A9654804F00AF801A808F0D4
:105A400035FE634808F0B2FC01940020ADF8080070
:105A5000ADF80A00ADF80C00ADF810000C20ADF860
:105A60000E0001A95A4808F02BFD012240F22551F1
:105A7000574809F0A4FA0121554808F07CFE08B007
:105A800010BD70B505460E46002411E0295D514851
:105A900002880088401C4F4B18804F48815418469C
:105AA0000088FF2802DD002019460880601CC4B26F
:105AB000B442EBDB46480C30008800F0800028B987
:105AC000012240F22771424809F079FA70BD43493A
:105AD0000A880988491C414B198041498854194654
